:1000000000000A128A111228FE00030EF5000408EF
:10001000F6000A08F700831203137F08F8000A129B
:0A0020008A11FE290A128A112B280A
:100030007E088A007F0882000A128A1118200A129C
:100040008A118000840A04087D0603190034FF0A1F
:100050000319FE0A1C28FD01F901FA01FB01FC014C
:1000600083132030840030300A128A15DB270A12ED
:100070008A115330FD000F30FE00E330FF0049309D
:1000800084000A128A111C200A128A1183010A12A2
:100090008A11282C83120313B401B5014F28301C98
:1000A0005228532859283208B4070318B50A3308D0
:1000B000B50701300310B20DB30DFF3E031D5A28E2
:1000C00001300310B10CB00CFF3E031D6128310854
:1000D0003004031D6C286D284F286E283508B101A7
:1000E000B1073408B001B007752808008312031364
:1000F000051A7B287C28C02848084704031D81284E
:10010000822887280130C7000030C800BA28013093
:1001100047064804031D8D288E2893280230C70007
:100120000030C800BA28023047064804031D992849
:100130009A289F280330C7000030C800BA2803302F
:1001400047064804031DA528A628AB280430C7008D
:100150000030C800BA28043047064804031DB128FF
:10016000B228BA28C701C801BA28BA28BA28BA28BA
:10017000BA28BA28051EBD28BE28BA28C028C0281B
:1001800008000A3083120313B0000030B1003C08AD
:10019000B301B3073B08B201B2070A128A1120214A
:1001A0000A128A11831203133108C001C0073008F4
:1001B000BF01BF070A30B0000030B1003C08B301F6
:1001C000B3073B08B201B2070A128A1188210A124A
:1001D0008A11831203133108C201C2073008C1011A
:1001E000C1070A30B0000030B1003A08B301B307CC
:1001F0003908B201B2070A128A1120210A128A11A3
:10020000831203133108C401C4073008C301C307B4
:100210000A30B0000030B1003A08B301B307390822
:10022000B201B2070A128A1188210A128A118312B6
:1002300003133108C601C6073008C501C507080009
:1002400083120313B601B31F262927293029B209C7
:10025000B309B20A0319B30AB6010314B60D302963
:10026000B11F332934293A29B009B109B00A031959
:10027000B10A3A293108300403193F294029762967
:10028000B5010314B50D502901300310B00DB10DA7
:10029000FF3E031D45290130B4003408B50750293D
:1002A000B11F5329542944295629562931083302AC
:1002B000031D5C2930083202031C5F29602967296D
:1002C0003008B2023108031CB303B30267290130BE
:1002D0000310B10CB00CFF3E031D68290130B502BC
:1002E000031D732974295629762976293608031D9A
:1002F0007A298029B209B309B20A0319B30A8029FD
:100300003308B101B1073208B001B00787290800EE
:1003100083120313B601B11F8E298F299829B009C2
:10032000B109B00A0319B10AB6010314B60D982930
:10033000B31F9B299C29A629B209B309B20A031944
:10034000B30A0130B4003408B606A629B701B801D3
:10035000310830040319AD29AE29EC29B501031485
:10036000B50DBE2901300310B00DB10DFF3E031DC8
:10037000B3290130B4003408B507BE29B11FC12923
:10038000C229B229C429C42901300310B70DB80D00
:10039000FF3E031DC52931083302031DD129300852
:1003A0003202031CD429D529DD293008B2023108D4
:1003B000031CB303B3023714DD2901300310B10C61
:1003C000B00CFF3E031DDE290130B502031DE929F3
:1003D000EA29C429EC29EC293608031DF029F6295D
:1003E000B709B809B70A0319B80AF6293808B101DC
:1003F000B1073708B001B007FD2908000C1C012A1D
:10040000022AD22A831603130C108B130B1301300C
:10041000FB070318FC0A0030FC070130F90703183A
:10042000FA0A0030FA0703307B067C04031D192A00
:100430001A2A2C2A0030F1000030F2008312031334
:100440004008F401F4073F08F301F3070A128A1188
:10045000DE220A128A117C2A06307B067C04031DE8
:10046000322A332A452A0130F1000030F20083128B
:1004700003134208F401F4074108F301F3070A12D9
:100480008A11DE220A128A117C2A09307B067C043A
:10049000031D4B2A4C2A5E2A0230F1000030F20084
:1004A000831203134408F401F4074308F301F3072C
:1004B0000A128A11DE220A128A117C2A0C307B066B
:1004C0007C04031D642A652A7C2AFB01FC0103309D
:1004D000F1000030F200831203134608F401F40720
:1004E0004508F301F3070A128A11DE220A128A1163
:1004F0007C2A7C2A7C2A7C2AFA3079067A04031D1D
:10050000822A832A8B2A20308312031385067D10CA
:10051000851E8B2A7D1401307A06031D912AF43042
:100520007906031D942A952AC52A013083120313E4
:10053000A4070318A50A0030A5072030850601305E
:10054000FD06F901FA013C3024062504031DA92A01
:10055000AA2AC52A0130A2070318A30A0030A3075C
:10056000A401A5013C3022062304031DB82AB92AA0
:10057000C52AA201A3010130A0070318A10A003077
:10058000A107C52AC52AC52AC52A831203130C1040
:100590002F308E00FC308F00831603130C148B1742
:1005A0000B17D22A78088312FF0077088A00760892
:1005B0008400750E8300FE0E7E0E09007208710421
:1005C000031DE32AE42AFD2A831203138614061569
:1005D00086154A084904031DEE2AEF2AFA2A7D18D7
:1005E000F22AF62A831203130614F92A831203133C
:1005F0000610632B0610632B632B01307106720407
:10060000031D032B042B1E2B831203130614061544
:100610008615013049064A04031D0F2B102B1B2B96
:100620007D18132B172B8312031386141A2B831296
:1006300003138610632B8610632B632B0230710625
:100640007204031D242B252B3F2B831203138614C6
:1006500006148615023049064A04031D302B312B3F
:100660003C2B7D18342B382B8312031306153B2BA0
:10067000831203130611632B0611632B632B0330C4
:1006800071067204031D452B462B632B8312031343
:10069000861406140615033049064A04031D512B1F
:1006A000522B5D2B7D18552B592B83120313861566
:1006B0005C2B831203138611632B8611632B632B30
:1006C000632B632B632B74087304031D682B692B46
:1006D000732B83120313881708170715871507163E
:1006E00087160713272C013073067404031D792B1A
:1006F0007A2B842B8312031388130817071587118D
:10070000071287120713272C023073067404031D87
:100710008A2B8B2B952B831203138817081707112D
:100720008715071687120717272C033073067404E2
:10073000031D9B2B9C2BA62B8312031388170817D2
:1007400007158715071287120717272C0430730621
:100750007404031DAC2BAD2BB72B8312031388132A
:10076000081707158711071287160717272C05305A
:1007700073067404031DBD2BBE2BC82B83120313F9
:100780008817081307158715071287160717272CD0
:10079000063073067404031DCE2BCF2BD92B831286
:1007A00003138817081307158715071687160717E9
:1007B000272C073073067404031DDF2BE02BEA2B74
:1007C000831203138817081707158711071287125A
:1007D0000713272C083073067404031DF02BF12B2C
:1007E000FB2B8312031388170817071587150716A5
:1007F00087160717272C093073067404031D012C74
:10080000022C0C2C83120313881708170715871561
:10081000071287160717272C0A3073067404031D66
:10082000122C132C272C831203138813081307117F
:100830008711071287120717272C272C272C272C04
:10084000272C272C272C272C272C272C272C08005B
:100850008312031390121016901010149011B030E0
:100860008E003C308F00831603130C148B170B176C
:1008700006309F00DF308500DF30831203138500D0
:10088000831603138701831203138701831603134F
:1008900086018312031386018316031388018312D2
:1008A000031388018316031389018312031389013B
:1008B0000A128A15ED270A128A11033083120313D4
:1008C000C7000030C8000A128A1176200A128A1165
:1008D000E32F831203132B08BA01BA072A08B901C0
:1008E000B9072D08BC01BC072C08BB01BB070A12C5
:1008F0008A11C1200A128A1183120313C901CA0185
:10090000881188100810E62D8518872C882C1D2D3D
:100910004A084904031D8D2C8E2CAA2C4008803ACD
:10092000FF0080307F02031D972C09303F02031C1B
:100930009A2C9B2CA02C83120313BF01C001172DEE
:10094000013083120313BF070318C00A0030C00729
:10095000172D172D013049064A04031DB02CB12C68
:10096000CD2C4208803AFF0080307F02031DBA2C54
:1009700009304102031CBD2CBE2CC32C831203136F
:10098000C101C201172D013083120313C1070318DF
:10099000C20A0030C207172D172D023049064A043B
:1009A000031DD32CD42CF02C4408803AFF00803057
:1009B0007F02031DDD2C09304302031CE02CE12CD7
:1009C000E62C83120313C301C401172D01308312D7
:1009D0000313C3070318C40A0030C407172D172DCB
:1009E000033049064A04031DF62CF72C172D460840
:1009F000803AFF0080307F02031D002D0930450240
:100A0000031C032D042D092D83120313C501C601F8
:100A1000172D013083120313C5070318C60A0030CF
:100A2000C607172D172D172D172D172D172D851CC0
:100A30001A2D1B2D172DE62DE62D0519202D212D04
:100A4000BE2D4A084904031D262D272D452D40089B
:100A5000803AFF0080307F02031D302D01303F02BD
:100A60000318332D342D3B2D093083120313BF009F
:100A70000030C000B82DFF3083120313BF070318E6
:100A8000C00AFF30C007B82DB82D013049064A040E
:100A9000031D4B2D4C2D6A2D4208803AFF008030FB
:100AA0007F02031D552D013041020318582D592D89
:100AB000602D093083120313C1000030C200B82D2D
:100AC000FF3083120313C1070318C20AFF30C207A5
:100AD000B82DB82D023049064A04031D702D712D22
:100AE0008F2D4408803AFF0080307F02031D7A2D4D
:100AF0000130430203187D2D7E2D852D0930831290
:100B00000313C3000030C400B82DFF308312031359
:100B1000C3070318C40AFF30C407B82DB82D03302B
:100B200049064A04031D952D962DB82D4608803A96
:100B3000FF0080307F02031D9F2D01304502031806
:100B4000A22DA32DAA2D093083120313C500003056
:100B5000C600B82DFF3083120313C5070318C60A59
:100B6000FF30C607B82DB82DB82DB82DB82DB82D2B
:100B7000051DBB2DBC2DB82DE62DE62D0518C12D6C
:100B8000C22DE62D4A08803AFF0080307F02031D07
:100B9000CB2D03304902031CCE2DCF2DD42D831233
:100BA0000313C901CA01DE2D013083120313C907E3
:100BB0000318CA0A0030CA07DE2DDE2D051CE12D00
:100BC000E22DDE2DE62DE62DE62DE62D8519E92D0B
:100BD000EA2D842CEC2DEC2D851DEF2DF02DEC2D28
:100BE000F12D0130C7000030C8004208B101B10743
:100BF0004108B001B0070A30B2000030B3000A1259
:100C00008A114A200A128A11831203133F083007FF
:100C1000AC0040080318400A3107AD004608B10196
:100C2000B1074508B001B0070A30B2000030B30088
:100C30000A128A114A200A128A11831203134308E6
:100C40003007AA0044080318440A3107AB00632C9C
:100C50002B08BA01BA072A08B901B9072D08BC0147
:100C6000BC072C08BB01BB070A128A11C1200A125B
:100C70008A11053083120313C9000030CA0088109E
:100C800008140A128A1176200A128A118312031399
:100C900085194B2E4C2E632CA401A501A201A301A2
:100CA000A001A101532E851D562E572E532EE62E40
:100CB000E62E081588152209BD002309BE00BD0ACD
:100CC0000319BE0A2C083D07A8002D0803182D0A99
:100CD0003E07A9002009BD002109BE00BD0A031975
:100CE000BE0A2A083D07A6002B0803182B0A3E0758
:100CF000A700BD2E2209BD002309BE00BD0A0319AD
:100D0000BE0A2C083D07A8002D0803182D0A3E072F
:100D1000A9002009BD002109BE00BD0A0319BE0AB1
:100D20002A083D07A6002B0803182B0A3E07A70038
:100D30002708BA01BA072608B901B9072908BC0172
:100D4000BC072808BB01BB070A128A11C1200A127E
:100D50008A11831203138519AE2EAF2EBD2E2B08D8
:100D6000A101A1072A08A001A0072D08A301A3073C
:100D70002C08A201A207BD2EBD2E2B082106031DA3
:100D8000C32E2A082006031DC62EC72E7A2E2D0834
:100D90002306031DCD2E2C082206031DD02ED12E96
:100DA0007A2ED32ED32E851DD62ED72ED32ED82EE7
:100DB0000A128A15ED270A128A11033083120313CF
:100DC000C7000030C80088110811EC2E8519E92EE3
:100DD000EA2E592EEC2EEC2E851DEF2EF02EEC2E49
:100DE000632C632C632C2B08BA01BA072A08B901BB
:100DF000B9072D08BC01BC072C08BB01BB070A12B0
:100E00008A11C1200A128A11053083120313C90006
:100E10000030CA00881408100A128A1176200A12BB
:100E20008A11831203138519162F172F632CA4011F
:100E3000A501A201A301A001A1011E2F851D212F43
:100E4000222F1E2F242F242F8519272F282F242FC0
:100E5000081588112209BD002309BE00BD0A031927
:100E6000BE0A2C083D07A8002D0803182D0A3E07CE
:100E7000A9002009BD002109BE00BD0A0319BE0A50
:100E80002A083D07A6002B0803182B0A3E07A700D7
:100E90008C2F2209BD002309BE00BD0A0319BE0A1A
:100EA0002C083D07A8002D0803182D0A3E07A900AD
:100EB0002009BD002109BE00BD0A0319BE0A2A0887
:100EC0003D07A6002B0803182B0A3E07A70027089A
:100ED000BA01BA072608B901B9072908BC01BC073D
:100EE0002808BB01BB070A128A11C1200A128A1105
:100EF0008312031385197D2F7E2F8C2F2B08A101C0
:100F0000A1072A08A001A0072D08A301A3072C0808
:100F1000A201A2078C2F8C2F2B082106031D922FD4
:100F20002A082006031D952F962F492F2D082306EA
:100F3000031D9C2F2C082206031D9F2FA02F492F35
:100F4000A22FA22F851DA52FA62FA22FA72F0A12F1
:100F50008A15ED270A128A11043083120313C70081
:100F60000030C80088150811632C632C0A128A15FA
:100F7000ED270A128A11053083120313C9000030CD
:100F8000CA000A128A1176200A128A1183120313E8
:100F9000881188100810632C0A128A15ED270A128E
:100FA0008A11053083120313C9000030CA000A12E7
:100FB0008A1176200A128A11831203138815881069
:100FC0000810632C632C831203134808003A03199A
:100FD000EA2F632C4708003A0319692C013A0319D8
:100FE000282E033A0319F32E013A0319B62F073AB4
:100FF0000319CC2F632C632C632C0A128A1112283C
:101FB60064008001840A0406031900340406DC2F39
:101FC6000534003401340034023400340334003460
:101FD600043400340A3083120313BF000030C000FB
:101FE6000A30C1000030C2000A30C3000030C4000D
:0A1FF6000A30C5000030C6000800E4
:00000001FF
